:02000000712865
:0E0006008312031321088A00200882000800DC
:0E001400073083120313FD00FD0B0E280800B9
:0A002200103083160313810008005C
:10002C00831203139F01C0309F0483161F179F1761
:10003C0083122408F000F00D7010F00D7010F00D0C
:10004C00701070089F041F140A201F151F1D3028E4
:10005C0000002C281F101E08F100F00183161E084A
:08006C00F0040030F10408006B
:1000740003208A110A128000840AA00A0319A10A23
:08008400F003031D3A280800F7
:10008C0083120313A50CA40CA513251BA517810122
:10009C008030F000803025067002031D572824089C
:1000AC00FF3C03186428FA30010203185E28592813
:1000BC00FA30A402031CA50381014E288030F00005
:1000CC00803025067002031D6D28240801020318D8
:0600DC00702864280800F2
:1000E20083160313860111208312A40116207008BF
:1000F2008312A2007108A300861706177008E83E53
:10010200A40003300318013E7107A50046208613A0
:1001120006132208E83EF00003300318013E2307CD
:10012200F1007008203CA4007108031C013E4E3C03
:08013200A500462075289C2859
:02400E004A2F37
:00000001FF
