:02000000662870
:10000800FF00030E8301A4000A08A5008A01DF305F
:100018008E00B1308F000C1C1C2888152008E83E83
:10002800A60003300318013E2107A7003B208811D2
:100038000C1025088A00240E8300FF0E7F0E09008D
:0E0048008312031323088A0022088200080096
:08005600831603138101080069
:10005E0024208A110A128000840AA20A0319A30A14
:08006E00F003031D2F28080018
:1000760083120313A70CA60CA713271BA71781012E
:100086008030F000803027067002031D4C282608B9
:10009600FF3C03185928FA300102031853284E284A
:1000A600FA30A602031CA703810143288030F00022
:1000B600803027067002031D6228260801020318F5
:0600C6006528592808001E
:1000CC0083160313880101308C00C0308B0005307F
:1000DC00831290002B20DF3083128E00B1308F0002
:1000EC00A001A1011A30FB005E30FC006E30FD0057
:1000FC00FD0B7E28FC0B7E28FB0B7E2800008A3033
:08010C00A000A101852889284B
:02400E004A2F37
:00000001FF
