:02000000F629DF
:0E000600213083120313FD00FD0B07280800B4
:06001400000000000800DE
:10001A000F3083120313FC004730FD00FD0B132839
:0A002A00FC0B132800000000080082
:1000340083120313BC1B20288611212886153C1B20
:100044002528061126280615BC1A2A2886102B28CE
:1000540086143C1A2F280610302806142018342839
:1000640006163528061286160A208612BC193C2864
:1000740086113D2886153C1941280611422806158B
:10008400BC1846288610472886143C184B280610AE
:100094004C280614201850280616512806128616D5
:1000A4000A208612201C58280D20592803200800F5
:1000B40083120313F801F9011030FC00710DF80DDF
:1000C400F90D7408F8027508031C750FF90203187A
:1000D40072287408F80775080318750FF9070310D8
:0A00E400F00DF10DFC0B6028080080
:0E00EE008312031322088A00210882000800F2
:1000FC0083120313BA0105303A0203188C283A080C
:10010C003907840020308000BA0A81283A08390760
:10011C0084008001BA033A083907BB000A30F400A6
:10012C00F5013708F0003808F1005A207808F00083
:10013C007908F1003030F0073B088400700880002B
:10014C000A30F400F5013708F0003808F1005A20A5
:10015C007008B7007108B80000307106031DB8288C
:10016C0000307006031DBB28BD28BA039128080077
:10017C008312031320103708BC001A202014080027
:10018C000E3083120313FD00FD0BCA28000008007B
:10019C00E028803083120313AE00F328C030AE0089
:1001AC00F3289430AE00F328D430AE00F32880301E
:1001BC00AE00F328831203132E08013A0319CF283B
:1001CC002E08023A0319D4282E08033A0319D7280B
:1001DC002E08043A0319DA28DD282F03F0002E0824
:1001EC00F0077008AE007008BC001A202010B10196
:1001FC00310830078400000803190C293108300736
:10020C0084000008B700BE20B10AFE2820140800A4
:10021C0083120313B301B4012E08B5002F08B600E6
:10022C0080302F06F00080307002031D1F29003033
:10023C002E0203182D290130B3000030B4002E0813
:10024C00003CB5002F08031C013EB601B602350870
:10025C00B7003608B8003008B9007E200630B1006F
:10026C000030B2003208003C031D3E293108003C2E
:10027C000318592931083007F20001303102F0001F
:10028C000030031C013E3202F1007008300784007C
:10029C000008F00072088400700880000130B10280
:1002AC00031CB20338293008840020308000330846
:1002BC00340403197729B101B201310830078400E5
:1002CC000008203A031D6E29B10A0319B20A6329EA
:1002DC000130B102031CB2033108300784002D3009
:0402EC008000080086
:1002F00077208A110A128000840AA10A0319A20A2F
:08030000F003031D7829080039
:10030800831603138612061206108610061186112C
:1003180083128612061286110611861006100D2009
:100328000D200D208614061486160A2086120D202C
:1003380086160A2086120D2086160A2086120D209F
:10034800061086160A2086120D2086160A208612A6
:100358008610861586160A2086120D208611061428
:1003680086160A208612061086160A2086120D2086
:1003780086160A208612061486160A2086120D2072
:10038800061086160A208612861506158614061487
:0C03980086160A2086120D202014080092
:1003A400831203139F01C0309F0483161F179F17E6
:1003B40083122E08F000F00D7010F00D7010F00D87
:1003C400701070089F041F14C6201F151F1DEC29F0
:1003D4000000E8291F101E08F100F00183161E0812
:0803E400F0040030F1040800F0
:1003EC00842183168801C03083128800AE01D2218B
:1003FC0070088312A3007108A4000130AE00D22152
:10040C0070088312A5007108A6002308AE0024080A
:10041C00AF002730B0000E210130AE000130AF002C
:10042C002730B000CE202508AE002608AF002730BC
:10043C00B0000E210230AE000130AF002730B0000A
:10044C00CE200430FB000C30FC003330FD00FD0BE3
:10045C002D2AFC0B2D2AFB0B2D2A000000008030CE
:10046C00013AF000803026067002031D3F2A250851
:10047C00703C0318502A80302606F0008030013A78
:10048C007002031D4B2A7A3025020318502AFF30C4
:0A049C008800512A8801FC29522A29
:02400E004A2F37
:00000001FF
