:02000000A02836
:10000800FF00030E8301A7000A08A8008A017008F0
:10001800A000DF308E00B1308F000C1C2928861715
:100028002508E83EAE0003300318013E2607AF005E
:100038006920861306172308E83EAE00033003182C
:10004800013E2407AF00692006130C102008F000B9
:0E00580028088A00270E8300FF0E7F0E090085
:0E0066008312031322088A002108820008007A
:0E007400073083120313FD00FD0B3E28080029
:0800820083160313810108003D
:10008A00831203139F01C0309F0483161F179F1703
:10009A0083122D08F000F00D7010F00D7010F00DA5
:1000AA00701070089F041F143A201F151F1D5F2827
:1000BA0000005B281F101E08F100F00183161E08BD
:0800CA00F0040030F10408000D
:1000D20083120313AF0CAE0CAF132F1BAF178101AA
:1000E2008030F00080302F067002031D7A282E081F
:1000F200FF3C03188728FA300102031881287C2864
:10010200FA30AE02031CAF03810171288030F00087
:1001120080302F067002031D90282E08010203185A
:0601220093288728080065
:1001280033208A110A128000840AA10A0319A20A3C
:08013800F003031D94280800E8
:100140008316031386018801831288010130831608
:100150008C00C0308B000530831290004120DF30CE
:1001600083128E00B1308F00AD01452070088312DC
:10017000A9007108AA000130AD0045207008831263
:10018000AB007108AC0080302A06F00080307002AD
:10019000031DCC28643029020318D12809308800B7
:1001A000DF288030033AF00080302A067002031DF9
:1001B000DB282908203C0318DF280630880080301F
:1001C0002C06F00080307002031DE82864302B02FA
:1001D0000318ED2805308800FD288030033AF00030
:1001E00080302C067002031DF7282B08203C0318D2
:1001F000FC280A308800FD2888010230AD00452027
:1002000070088312A5007108A6000330AD004520D8
:0E02100070088312A3007108A400B4280E2900
:02400E004A2F37
:00000001FF
