:020000000D29C8
:1000060083120313F801F9011030FC00710DF80D8D
:10001600F90D7408F8027508031C750FF902031828
:100026001B287408F80775080318750FF9070310DD
:0A003600F00DF10DFC0B0928080085
:1000400083160313981826280000202883123E08E0
:04005000990008000B
:0E005400831203132B088A002A08820008007A
:1000620083120313C1010530410203183F284108DE
:100072004007840020308000C10A3428410840072C
:1000820084008001C10341084007C2000A30F40025
:10009200F5013E08F0003F08F10003207808F00067
:1000A2007908F1003030F0074208840070088000BF
:1000B2000A30F400F5013E08F0003F08F100032089
:1000C2007008BE007108BF0000307106031D6B2866
:1000D20000307006031D6E287028C10344280800F2
:1000E2002A208A110A128000840AAA0A0319AB0A7A
:0800F200F003031D7128080052
:1000FA0083120313BA01BB013508BC003608BD00E0
:10010A0080303606F00080307002031D8E280030E1
:10011A00350203189C280130BA000030BB003508AC
:10012A00003CBC003608031C013EBD01BD023C0870
:10013A00BE003D08BF003708C00031200630B800B5
:10014A000030B9003908003C031DAD283808003CCE
:10015A000318C82838083707F20001303802F000BF
:10016A000030031C013E3902F10070083707840091
:10017A000008F00072088400700880000130B8029C
:10018A00031CB903A72837088400203080003A08E6
:10019A003B040319E628B801B90138083707840077
:1001AA000008203A031DDD28B80A0319B90AD22823
:1001BA000130B802031CB9033808370784002D3010
:0401CA0080000800A9
:1001CE0083120313B701350884000008B600360801
:1001DE00003A0319FC283608BE002020B70A37085B
:0C01EE00350784000008B600EE28080069
:1001FA008316031398169030831298008316871774
:10020A00071383128C1E0C291A08F000062908000D
:10021A00643083120313A0006930A1007330A20076
:10022A007430A3006130A4006E30A5006330A600CC
:10023A006530A7003D30A800A901B301B40102301E
:10024A0083168600333099001815FD200610000029
:10025A0000000000000006140330FD00FD0B3329E6
:10026A000610861C4029B30A0319B40A0F30FD0090
:10027A00FD0B3D2936298030F000803034067002AB
:10028A00031D49293308003C03189E293308F0004E
:10029A003408F100F10CF00CF113711BF11770081E
:1002AA00B3007108B4007008B5007108B6002C30AC
:1002BA00B7007D202030B500E7202C30B500E720BC
:1002CA0080303406F00080307002031D6E2914302D
:1002DA00330203187329861506128E298030F0001E
:1002EA00803034067002031D7C293308143C03183D
:1002FA008C2980303406F00080307002031D872973
:10030A002830330203188C29861106168E29861185
:10031A0006120B30FB002630FC005D30FD00FD0BA1
:10032A009429FC0B9429FB0B942900000000B301CB
:06033A00B4012B299F29EC
:02400E004A2F37
:00000001FF
